:1000000065C0000080C000007EC000007CC0000011
:10001000A5C0000078C0000076C0000074C00000D9
:10002000B0C0000070C000006EC000006CC00000D6
:100030006AC0000068C0000066C0000064C0000024
:1000400062C0000060C000005EC000005CC0000034
:100050005AC0000058C0000056C0000054C0000044
:1000600052C0000050C000004EC000004CC0000054
:100070004AC0000048C0000046C0000044C0000064
:1000800042C0000040C000003EC000003CC0000074
:100090003AC0000038C0000036C0000034C0000084
:1000A00032C0000030C000002EC000002CC0000094
:1000B0002AC0000028C0000026C0000075C0000053
:1000C00022C0000020C000001EC0000011241FBE7E
:1000D000CFEFD1E2DEBFCDBF13E0A0E0B2E0E0ECB5
:1000E000F2E000E00BBF02C007900D92AA30B1070A
:1000F000D9F723E0AAE0B3E001C01D92AC30B2070B
:10010000E1F7BFD0DBC07CCF9FB7F89484BB68B960
:1001100087E084BB99230CF47894089560E080E034
:10012000F3DF60E081E0F0DF60E082E0EDCF089592
:100130009FB7F89423E024BB88B987E084BB992358
:100140000CF4789408958FEF87B987E083BB84B16E
:10015000806184B9E3DF8FEFEBCF08951F920F9298
:100160000FB60F9211248F9380910002882319F00B
:100170008A50809300028F910F900FBE0F901F90B6
:1001800018951F920F920FB60F9211248F938091A2
:100190000002843618F4865F809300028F910F90DE
:1001A0000FBE0F901F9018951F920F920FB60F92CF
:1001B00011240BB60F928F93EF93FF93E0910B03F3
:1001C00081E08E0F80930B03F0E0E75FFD4F8081AD
:1001D0008093B300FF91EF918F910F900BBE0F9022
:1001E0000FBE0F901F90189584B1806184B98DB1B6
:1001F00088608DB988E08BB980E88EB9089583E86E
:100200008093B00081E08093B1008FE78093B300CA
:1002100082E88093900082E18093910088EE93E0E1
:10022000909397008093960084EF91E090939900CB
:10023000809398008AE08093210180EA97E0909370
:10024000290180932801089580E8809369008093B4
:100250006A0088E88DBB82E08093730078940895EB
:1002600090E09C01220F331F880F991F880F991F60
:10027000880F991F820F931F909399008093980085
:100280000895B2DFBCDFE0DF5EDFE0910A0381E0CA
:100290008E0F80930A03E770F0E0EF5FFD4F8081DF
:1002A00047DF2FEF84E39CE0215080409040E1F74E
:1002B00000C0000080910002D3DFE7CFF894FFCFA9
:1002C0003281C3E7FF7E3C1800808386898C90933F
:1002D00096999C9FA2A5A8ABAEB1B3B6B9BCBFC15D
:1002E000C4C7C9CCCED1D3D5D8DADCDEE0E2E4E6AF
:1002F000E8EAEBEDEFF0F1F3F4F5F6F8F9FAFAFBD2
:10030000FCFDFDFEFEFEFFFFFFFFFFFFFFFEFEFE0A
:10031000FDFDFCFBFAFAF9F8F6F5F4F3F1F0EFED78
:10032000EBEAE8E6E4E2E0DEDCDAD8D5D3D1CECC05
:10033000C9C7C4C1BFBCB9B6B3B1AEABA8A5A29F73
:100340009C999693908C898683807D7A7774706D62
:100350006A6764615E5B5855524F4D4A4744413F5E
:100360003C393734322F2D2B28262422201E1C1AEC
:100370001816151311100F0D0C0B0A0807060605A9
:100380000403030202020101010101010102020250
:1003900003030405060607080A0B0C0D0F101113C2
:1003A0001516181A1C1E20222426282B2D2F323415
:1003B00037393C3F4144474A4D4F5255585B5E6187
:0A03C00064676A6D7074777A7D003F
:00000001FF
