S013000054696D65724261736963332E73726563FB
S113000065C0000080C000007EC000007CC000000D
S11300107AC0000078C0000076C0000074C0000000
S113002072C0000070C000006EC000006CC0000010
S11300306AC0000068C0000066C0000064C0000020
S113004062C0000060C000005EC000005CC0000030
S11300505AC0000058C0000056C0000054C0000040
S113006052C0000050C000004EC000004CC0000050
S11300704AC0000048C0000046C0000044C0000060
S113008042C0000040C000003EC000003CC0000070
S11300903AC0000038C0000036C0000034C0000080
S11300A032C0000030C000002EC000002CC0000090
S11300B02AC0000028C0000026C000004FC0000075
S11300C022C0000020C000001EC0000011241FBE7A
S11300D0CFEFD1E2DEBFCDBF13E0A0E0B2E0E6EFA8
S11300E0F1E000E00BBF02C007900D92A030B10711
S11300F0D9F723E0A0E0B3E001C01D92A130B2071C
S1130100E1F773D076C07CCF9FB7F89484BB68B90D
S113011087E084BB99230CF47894089560E080E030
S1130120F3DF60E081E0F0DF60E082E0EDCF08958E
S11301309FB7F89423E024BB88B987E084BB992354
S11301400CF4789408958FEF87B987E083BB84B16A
S1130150806184B9E3DF8FEFEBCF08951F920F9294
S11301600FB60F9211240BB60F928F93EF93FF9358
S1130170E091000381E08E0F80930003F0E0E050F3
S1130180FE4F80818093B300FF91EF918F910F9088
S11301900BBE0F900FBE0F901F90189583E88093AD
S11301A0B00081E08093B1008FE78093B30082E8D0
S11301B08093900082E18093910088EE93E0909385
S11301C097008093960084EF91E090939900809338
S11301D098008AE08093210180EA97E090932901B6
S11301E080932801089578940895D8DFFCDFABDF6D
S10901F0FFCFF894FFCFDD
S11301F6808386898C909396999C9FA2A5A8ABAE82
S1130206B1B3B6B9BCBFC1C4C7C9CCCED1D3D5D896
S1130216DADCDEE0E2E4E6E8EAEBEDEFF0F1F3F453
S1130226F5F6F8F9FAFAFBFCFDFDFEFEFEFFFFFF0C
S1130236FFFFFFFFFEFEFEFDFDFCFBFAFAF9F8F6F2
S1130246F5F4F3F1F0EFEDEBEAE8E6E4E2E0DEDC08
S1130256DAD8D5D3D1CECCC9C7C4C1BFBCB9B6B31D
S1130266B1AEABA8A5A29F9C999693908C898683E0
S1130276807D7A7774706D6A6764615E5B585552E7
S11302864F4D4A4744413F3C393734322F2D2B28B2
S1130296262422201E1C1A1816151311100F0D0CD5
S11302A60B0A0807060605040303020202010101FC
S11302B60101010102020203030405060607080AF6
S11302C60B0C0D0F1011131516181A1C1E202224C0
S11302D626282B2D2F323437393C3F4144474A4D8B
S11302E64F5255585B5E6164676A6D7074777A7DA8
S9030000FC
