:1000000065C0000078C0000076C0000074C0000029
:1000100072C0000070C000006EC000006CC0000024
:100020006AC0000068C0000066C0000064C0000034
:1000300062C0000060C000005EC000005CC0000044
:100040005AC0000058C0000056C0000054C0000054
:1000500052C0000050C000004EC000004CC0000064
:100060004AC0000048C0000046C0000044C0000074
:1000700042C0000040C000003EC000003CC0000084
:100080003AC0000038C0000036C0000034C0000094
:1000900032C0000030C000002EC000002CC00000A4
:1000A0002AC0000028C0000026C0000024C00000B4
:1000B00022C0000020C000001EC000001CC00000C4
:1000C0001AC0000018C0000028C0000011241FBE84
:1000D000CFEFD1E2DEBFCDBF12E0A0E0B2E0EEE7AD
:1000E000F1E000E00BBF02C007900D92A030B10715
:1000F000D9F72BD042C084CFE1E9F0E080818A605B
:10010000808389EF90E09093990080939800E1E2DA
:10011000F1E080818360808308951F920F920FB673
:100120000F9211248F939F9395B180E2892785B90F
:100130008CE396EF90932501809324019F918F91FA
:100140000F900FBE0F901F901895D6DF80E284B9F4
:100150008DE396EF90932501809324018AB3882341
:10016000E9F385B191E0892785B99ABB8CE797EFD0
:0E0170009093250180932401F1CFF894FFCFE6
:00000001FF
