:1000000065C0000078C0000076C0000074C0000029
:1000100072C0000070C000006EC000006CC0000024
:100020006AC0000068C0000066C0000064C0000034
:1000300062C0000060C000005EC000005CC0000044
:100040005AC0000058C0000056C0000054C0000054
:1000500052C0000050C000004EC000004CC0000064
:100060004AC0000048C0000046C0000044C0000074
:1000700042C0000040C000003EC000003CC0000084
:100080003AC0000038C0000036C0000034C0000094
:1000900032C0000030C000002EC000002CC00000A4
:1000A0002AC0000028C0000026C0000024C00000B4
:1000B00022C0000020C000001EC000001DC00000C3
:1000C0001AC0000018C0000016C0000011241FBE96
:1000D000CFEFD1E2DEBFCDBF12E0A0E0B2E0EEE7AD
:1000E000F1E000E00BBF02C007900D92A030B10715
:1000F000D9F73FD042C084CF1F920F920FB60F9214
:1001000011248F939F9395B180E2892785B99F91A0
:100110008F910F900FBE0F901F901895E0E9F0E0BF
:10012000808180658083E1E9F0E080818A6080835E
:1001300089EF90E090939900809398008CE790E08D
:1001400090939B0080939A00E1E2F1E080818B60C4
:10015000808383EC99E0909329018093280108958E
:1001600084B1806284B98DB188618DB90895789425
:0E0170000895F6DFD3DFFBDFFFCFF894FFCF5B
:00000001FF
