S00B00004144432E7372656351
S113000065C0000080C000007EC000007CC000000D
S11300107AC0000078C0000076C0000074C0000000
S113002072C0000070C000006EC000006CC0000010
S11300306AC0000068C0000066C0000064C0000020
S113004062C0000060C000005EC000005CC0000030
S11300505AC0000058C0000056C0000054C0000040
S113006052C00000FDC000004EC000004CC00000A3
S11300704AC0000015C1000046C0000044C0000092
S113008042C0000040C000003EC000003CC0000070
S11300903AC0000038C0000036C0000034C0000080
S11300A032C0000030C000002EC000002CC0000090
S11300B02AC0000028C0000026C0000024C00000A0
S11300C022C0000020C000001EC0000011241FBE7A
S11300D0CFEFD1E2DEBFCDBF12E0A0E0B2E0E2ECB0
S11300E0F3E000E00BBF02C007900D92A032B1070D
S11300F0D9F722E0A0E2B2E001C01D92A232B20719
S1130100E1F70DD15CC17CCF9FB7F89484BB68B98B
S113011087E084BB99230CF47894089560E080E030
S1130120F3DF60E081E0F0DF60E082E0EDCF08958E
S1130130E62FF0E0E05FFD4F608190E8499FA00169
S11301401124642BE1CF0895EF92FF920F931F9334
S1130150CF93DF938C019C01ADECBCEC21D1FC016D
S1130160F695E795F695E795F695E795CF01880F0F
S1130170991FEE0FFF1FEE0FFF1FEE0FFF1FE80F7B
S1130180F91FC8018E1B9F0BFC010AD1AC015695C7
S1130190479556954795569547959A0101D1969559
S11301A0879596958795969587959C01220F331F81
S11301B0880F991F880F991F880F991F820F931F0B
S11301C0C42FC81B98013695279536952795ABE71C
S11301D0B4E1E6D07C01F694E7940A30110558F4B2
S11301E040E06E2F80E0A4DF60E081E08DDF60E01E
S11301F082E08ADF18C00436110548F440E06E2F0F
S113020080E096DF40E06C2F81E092DF0CC040E09C
S11302106E2F80E08DDF40E06C2F81E089DF40E0CD
S11302206E2D82E085DFDF91CF911F910F91FF90BA
S1130230EF9008959FB7F89423E024BB88B987E032
S113024084BB99230CF4789408958FEF87B987E0E1
S113025083BB84B1806184B961DF8FEFEBCF0895F4
S11302601F920F920FB60F9211240BB60F928F9319
S1130270EF93FF93E6ECF0E0808180838081813608
S113028029F4EAE7F0E0808180648083FF91EF91B4
S11302908F910F900BBE0F900FBE0F901F9018956B
S11302A01F920F920FB60F9211240BB60F922F9339
S11302B03F934F935F936F937F938F939F93AF93EA
S11302C0BF93EF93FF93809178009091790090937E
S11302D021028093200238DFFF91EF91BF91AF910B
S11302E09F918F917F916F915F914F913F912F914A
S11302F00F900BBE0F900FBE0F901F90189578941F
S11303000895EAE7F0E088E8808380E480937C0045
S11303108081876080838081806480830895CF9307
S1130320DF93CDB7DEB760970FB6F894DEBF0FBE8C
S1130330CDBF80E1E0E0F2E0DE01119601900D9284
S11303408A95E1F7DEDFDBDF80DF1AD0E0E011E041
S11303501E0FE770F0E0EE0FFF1F81E090E08C0FBE
S11303609D1FE80FF91F808165DF9FEF24E38CE078
S1130370915020408040E1F700C00000E12FE7CF1A
S113038080E190E09093C5008093C40082E0809364
S1130390C00088E98093C10086E08093C20008957C
S11303A0A29FB001B39FC001A39F700D811D1124B2
S11303B0911DB29F700D811D1124911D0895F89413
S10503C0FFCF69
S11303C28100C300E700FF007E003C00180000002B
S11303D23F065B4F666D7D277F6F777C395E79714F
S9030000FC
