:1000000065C0000080C000007EC000007CC0000011
:100010007AC0000078C0000076C0000074C0000004
:1000200072C0000070C000006EC000006CC0000014
:100030006AC0000068C0000066C0000064C0000024
:1000400062C0000060C000005EC000005CC0000034
:100050005AC0000058C0000056C0000054C0000044
:1000600052C00000FDC000004EC000004CC00000A7
:100070004AC0000048C0000046C0000044C0000064
:1000800042C0000040C000003EC000003CC0000074
:100090003AC0000038C0000036C0000034C0000084
:1000A00032C0000030C000002EC000002CC0000094
:1000B0002AC0000028C0000026C0000024C00000A4
:1000C00022C0000020C000001EC0000011241FBE7E
:1000D000CFEFD1E2DEBFCDBF12E0A0E0B2E0EEE4B0
:1000E000F6E000E00BBF02C007900D92A631B10709
:1000F000D9F722E0A6E1B2E001C01D92A032B2071A
:10010000E1F7DBD0A2C27CCF9FB7F89484BB68B97B
:1001100087E084BB99230CF47894089560E080E034
:10012000F3DF60E081E0F0DF60E082E0EDCF089592
:10013000E62FF0E0EA5FFD4F608190E8499FA00163
:100140001124642BE1CF0895EF92FF920F931F9338
:10015000CF93DF938C019C01ADECBCECDBD0FC01B8
:10016000F695E795F695E795F695E795CF01880F13
:10017000991FEE0FFF1FEE0FFF1FEE0FFF1FE80F7F
:10018000F91FC8018E1B9F0BFC01C4D0AC01569512
:10019000479556954795569547959A01BBD09695A4
:1001A000879596958795969587959C01220F331F85
:1001B000880F991F880F991F880F991F820F931F0F
:1001C000C42FC81B98013695279536952795ABE720
:1001D000B4E1A0D07C01F694E7940A30110558F4FC
:1001E00040E06E2F80E0A4DF60E081E08DDF60E022
:1001F00082E08ADF18C00436110548F440E06E2F13
:1002000080E096DF40E06C2F81E092DF0CC040E0A0
:100210006E2F80E08DDF40E06C2F81E089DF40E0D1
:100220006E2D82E085DFDF91CF911F910F91FF90BE
:10023000EF9008959FB7F89423E024BB88B987E036
:1002400084BB99230CF4789408958FEF87B987E0E5
:1002500083BB84B1806184B961DF8FEFEBCF0895F8
:100260001F920F920FB60F9211240BB60F922F937D
:100270003F934F935F936F937F938F939F93AF932E
:10028000BF93EF93FF93E6ECF0E08081808387EEED
:1002900093E05ADFFF91EF91BF91AF919F918F91C2
:1002A0007F916F915F914F913F912F910F900BBE76
:1002B0000F900FBE0F901F901895C7DF0DD0789448
:1002C0006CE771E083E891E034D08DE08093C60064
:1002D0008DE08093C100FCCF80E190E09093C50059
:1002E0008093C40082E08093C00088E18093C100C5
:1002F00086E08093C20008958091C0008823E4F7CF
:100300008091C60008959091C00095FFFCCF809326
:10031000C6000895A29FB001B39FC001A39F700DB6
:10032000811D1124911DB29F700D811D1124911DFD
:1003300008950F931F93CF93DF93009731F46115C6
:10034000710519F480E090E039C08B01EC016EE09A
:1003500070E081E090E037D0FC01892B99F380E8D0
:1003600083830115110571F01387028781E8838368
:100370008091160290911702892B21F4F0931702B5
:10038000E09316022097C9F0D187C08783818260ED
:1003900083838091180290911902892B71F4F09354
:1003A0001902E093180280911A0290911B02892B86
:1003B00021F4F0931B02E0931A02CF01DF91CF9159
:1003C0001F910F9108950F931F93CF93DF93869FF3
:1003D0008001879F100D969F100D1124C8010DD02C
:1003E000EC01009721F0A80160E070E027D1CE0178
:1003F000DF91CF911F910F9108950F931F93CF938A
:10040000DF938230910510F482E090E0E0911E02CB
:10041000F0911F0220E030E0A0E0B0E0309719F149
:10042000408151810281138148175907C8F0841710
:10043000950769F4109731F012960C931297139662
:100440001C9327C000931E0210931F0222C0211587
:10045000310519F04217530718F49A01BD01EF0155
:10046000DF01F801DBCF21153105F9F0281B390B2D
:100470002430310580F48A819B816115710521F05A
:10048000FB019383828304C090931F0280931E021A
:10049000FE01329644C0FE01E20FF31F8193919357
:1004A00022503109398328833AC020911C023091AF
:1004B0001D02232B41F4209102023091030230935C
:1004C0001D0220931C02209100023091010221158F
:1004D000310541F42DB73EB7409104025091050219
:1004E000241B350BE0911C02F0911D02E217F3076B
:1004F000A0F42E1B3F0B2817390778F0AC014E5F94
:100500005F4F2417350748F04E0F5F1F50931D02B1
:1005100040931C028193919302C0E0E0F0E0CF0190
:10052000DF91CF911F910F910895CF93DF930097A3
:1005300009F481C0FC01329713821282A0911E023D
:10054000B0911F02109781F420813181820F931F97
:1005500020911C0230911D022817390751F5F093A4
:100560001D02E0931C0267C0ED0120E030E0CE17D1
:10057000DF0740F44A815B819E0141155105F1F08E
:10058000EA01F5CFD383C28340815181840F951F47
:10059000C817D90759F488819981840F951F02964D
:1005A000918380838A819B81938382832115310586
:1005B00029F4F0931F02E0931E023DC0E901FB8382
:1005C000EA8349915991C40FD51FEC17FD0761F4D7
:1005D00080819181840F951F0296E9019983888318
:1005E000828193819B838A83E0E0F0E012968D9173
:1005F0009C911397009719F0FD01DC01F7CF8D91C5
:100600009C9111979D012E5F3F4F820F931F209168
:100610001C0230911D022817390769F4309729F41C
:1006200010921F0210921E0202C013821282B09317
:100630001D02A0931C02DF91CF910895DC0101C03F
:0E0640006D9341505040E0F70895F894FFCFBD
:10064E000000200220003F065B4F666D7D277F6F06
:06065E00777C395E797122
:00000001FF
