:1000000065C0000080C000007EC000007CC0000011
:1000100027C1000078C0000076C0000074C0000056
:100020006CC1000070C000006EC000006CC0000019
:100030006AC0000068C0000066C0000064C0000024
:1000400062C0000060C000005EC000005CC0000034
:100050005AC0000058C0000056C0000054C0000044
:1000600052C0000050C000004EC000004CC0000054
:100070004AC0000048C0000046C0000044C0000064
:1000800042C0000040C000003EC000003CC0000074
:100090003AC0000038C0000036C0000034C0000084
:1000A00032C0000030C000002EC000002CC0000094
:1000B0002AC0000028C0000026C0000024C00000A4
:1000C00022C0000020C000001EC0000011241FBE7E
:1000D000CFEFD1E2DEBFCDBF12E0A0E0B2E0EEE6AE
:1000E000F4E000E00BBF02C007900D92A232B1070E
:1000F000D9F722E0A2E2B2E001C01D92A532B20718
:10010000E1F76DD1B2C17CCF9FB7F89484BB68B9D9
:1001100087E084BB99230CF47894089560E080E034
:10012000F3DF60E081E0F0DF60E082E0EDCF089592
:10013000E62FF0E0EF5EFD4F608190E8499FA0015F
:100140001124642BE1CF0895EF92FF920F931F9338
:10015000CF93DF938C019C01ADECBCEC77D1FC011B
:10016000F695E795F695E795F695E795CF01880F13
:10017000991FEE0FFF1FEE0FFF1FEE0FFF1FE80F7F
:10018000F91FC8018E1B9F0BFC0160D1AC01569575
:10019000479556954795569547959A0157D1969507
:1001A000879596958795969587959C01220F331F85
:1001B000880F991F880F991F880F991F820F931F0F
:1001C000C42FC81B98013695279536952795ABE720
:1001D000B4E13CD17C01F694E7940A30110558F45F
:1001E00040E06E2F80E0A4DF60E081E08DDF60E022
:1001F00082E08ADF18C00436110548F440E06E2F13
:1002000080E096DF40E06C2F81E092DF0CC040E0A0
:100210006E2F80E08DDF40E06C2F81E089DF40E0D1
:100220006E2D82E085DFDF91CF911F910F91FF90BE
:10023000EF9008959FB7F89423E024BB88B987E036
:1002400084BB99230CF4789408958FEF87B987E0E5
:1002500083BB84B1806184B961DF8FEFEBCF0895F8
:100260001F920F920FB60F9211240BB60F922F937D
:100270003F934F935F936F937F938F939F93AF932E
:10028000BF93EF93FF934091230250912402495171
:100290005C4F9A0136952795369527953695279583
:1002A000A5ECB0E2D3D0929582958F7089279F708C
:1002B000892768EE73E0869F9001879F300D969F97
:1002C000300D1124CA01821B930B9093240280935A
:1002D00023023ADFFF91EF91BF91AF919F918F91F0
:1002E0007F916F915F914F913F912F910F900BBE36
:1002F0000F900FBE0F901F9018951F920F920FB680
:100300000F9211240BB60F922F933F934F935F934D
:100310006F937F938F939F93AF93BF93CF93EF93FD
:10032000FF938CB1C82FCC1FCC27CC1F909100021B
:10033000C91769F188233CF14091230250912402AE
:100340004F5F5F4F9A0136952795369527953695DD
:100350002795A5ECB0E27AD0929582958F70892787
:100360009F70892768EE73E0869F9001879F300D0C
:10037000969F300D1124CA01821B930B9093240287
:100380008093230202C080E055DFC0930002FF91FA
:10039000EF91CF91BF91AF919F918F917F916F918D
:1003A0005F914F913F912F910F900BBE0F900FBE19
:1003B0000F901F90189587B18F6087B988B18F60B3
:1003C00088B98EB180688EB98BB188608BB9089579
:1003D00080E88093690088E88DBB78940895CF9376
:1003E000DF93CDB7DEB760970FB6F894DEBF0FBED0
:1003F000CDBF80E1E1E0F2E0DE01119601900D92C7
:100400008A95E1F7D8DFE4DF20DF80912302909125
:1004100024029ADEE091220281E08E0F8093220274
:10042000E770F0E0EE0FFF1F81E090E08C0F9D1F62
:10043000E80FF91F8081FEDE9FEF24E38CE09150EE
:1004400020408040E1F700C00000DFCFA29FB00154
:10045000B39FC001A39F700D811D1124911DB29FF8
:0E046000700D811D1124911D0895F894FFCF99
:10046E00018100C300E700FF007E003C0018000081
:10047E00003F065B4F666D7D277F6F777C395E7917
:02048E007100FB
:00000001FF
