:1000000065C0000080C000007EC000007CC0000011
:100010007AC0000078C0000076C0000074C0000004
:1000200072C000000FC100006EC000006CC0000074
:100030006AC0000068C0000066C0000064C0000024
:1000400062C0000060C000005EC000005CC0000034
:100050005AC0000058C0000056C0000054C0000044
:1000600052C0000050C000004EC000004CC0000054
:100070004AC0000048C0000046C0000044C0000064
:1000800042C0000040C000003EC000003CC0000074
:100090003AC0000038C0000036C0000034C0000084
:1000A00032C0000030C000002EC000002CC0000094
:1000B0002AC0000028C0000026C0000024C00000A4
:1000C00022C0000020C000001EC0000011241FBE7E
:1000D000CFEFD1E2DEBFCDBF12E0A0E0B2E0ECEDA9
:1000E000F3E000E00BBF02C007900D92A831B1070A
:1000F000D9F722E0A8E1B2E001C01D92AD31B2070C
:10010000E1F738D169C17CCF9FB7F89484BB68B957
:1001100087E084BB99230CF47894089560E080E034
:10012000F3DF60E081E0F0DF60E082E0EDCF089592
:10013000E62FF0E0E85FFD4F90E8499FA001112411
:100140006081642BE1CF08950F931F93CF93DF93CA
:100150008C019C01ADECBCEC30D1AC0156954795BF
:1001600056954795569547959A01220F331FCA0118
:10017000880F991F880F991F880F991F820F931F4F
:10018000F801E81BF90B9A0118D196958795969579
:100190008795969587959C01220F331F880F991F8D
:1001A000880F991F880F991F820F931FEA01C81BA0
:1001B000D90B0A30110558F440E06E2F80E0B8DF0B
:1001C00060E081E0A1DF60E082E09EDF22C00436D3
:1001D000110548F440E06E2F80E0AADF40E06C2F6C
:1001E00081E0A6DF16C040E06E2F80E0A1DF40E096
:1001F0006C2F81E09DDF98013695279536952795E0
:10020000ABE7B4E1DAD09695879540E0682F82E0BD
:100210008FDFDF91CF911F910F9108959FB7F894D1
:1002200023E024BB88B987E084BB99230CF478943D
:1002300008958FEF87B987E083BB249A6FDF8FEF34
:10024000EDCF08951F920F920FB60F9211240BB6A7
:100250000F922F933F934F935F936F937F938F935F
:100260009F93AF93BF93EF93FF9353B1507243B1FA
:1002700040741D9B29C080911B02581729F1E09101
:100280001902F0911A02E951FC4F9F01369527950A
:100290003695279536952795A5ECB0E28ED09295A8
:1002A00082958F7089279F70892768EE73E0869FFB
:1002B0009001879F300D969F300D1124E21BF30BA8
:1002C000F0931A02E09319021E9B28C08091180235
:1002D000481721F1E0911902F0911A0231969F011D
:1002E000369527953695279536952795A5ECB0E256
:1002F00064D0929582958F7089279F70892768EEC8
:1003000073E0869F9001879F300D969F300D1124DA
:10031000E21BF30BF0931A02E093190250931B02B5
:1003200040931802FF91EF91BF91AF919F918F91F0
:100330007F916F915F914F913F912F910F900BBEE5
:100340000F900FBE0F901F901895249A87B18F6061
:1003500087B9779A8BB188618BB90895EBE6F0E0A5
:10036000808180668083E8E6F0E080818160808320
:1003700078940895EADFF2DF5CDF8FEF4FDF80E0F3
:1003800090E0E2DE8091190290911A02DDDEE091A8
:100390001C0281E08E0F80931C02E770F0E0E050B9
:1003A000FE4F80813BDF2FEF84E39CE021508040B3
:1003B0009040E1F700C00000E5CFA29FB001B39FDD
:1003C000C001A39F700D811D1124911DB29F700D5E
:0C03D000811D1124911D0895F894FFCFA9
:1003DC0081C3E7FF7E3C18003F065B4F666D7D27AF
:0803EC007F6F777C395E7971A7
:00000001FF
