:1000000065C0000080C000007EC000007CC0000011
:100010004BC1000078C0000076C0000074C0000032
:1000200058C1000070C000006EC000006CC000002D
:100030006AC0000068C0000066C0000064C0000024
:1000400062C0000060C000005EC000005CC0000034
:100050005AC0000058C0000056C0000054C0000044
:1000600052C00000D5C000004EC000004CC00000CF
:100070004AC0000048C0000046C0000044C0000064
:1000800042C0000040C000003EC000003CC0000074
:100090003AC0000038C0000036C0000034C0000084
:1000A00032C0000030C000002EC000002CC0000094
:1000B0002AC0000028C0000026C000001FC10000A8
:1000C00022C0000020C000001EC0000011241FBE7E
:1000D000CFEFD1E2DEBFCDBF15E0A0E0B2E0E8E7B0
:1000E000FEE000E00BBF02C007900D92AA30B107FE
:1000F000D9F725E0AAE0B5E001C01D92A731B2070B
:10010000E1F7A8D1B7C67CCF9FB7F89484BB68B994
:1001100087E084BB99230CF47894089560E080E034
:10012000F3DF60E081E0F0DF60E082E0EDCF089592
:10013000E62FF0E0EA50FB4F90E8499FA001112420
:100140006081642BE1CF08950F931F93CF93DF93CA
:100150008C019C01ADECBCEC10D2EC01D695C7959E
:10016000D695C795D695C7959E01220F331FCE0110
:10017000880F991F880F991F880F991F820F931F4F
:10018000B801681B790B40E080E0D2DF9E01ADEC46
:10019000BCECF3D19695879596958795969587951E
:1001A0009C01220F331F880F991F880F991F880FFA
:1001B000991F820F931FBE01681B790B40E081E0FD
:1001C000B7DF98013695279536952795ABE7B4E1CB
:1001D000D4D19695879540E0682F82E0A9DFDF9122
:1001E000CF911F910F9108959FB7F89423E024BBFE
:1001F00088B987E084BB99230CF4789408958FEF35
:1002000087B987E083BB249A89DF8FEFEDCF08950C
:100210001F920F920FB60F9211240BB60F922F93CD
:100220003F934F935F936F937F938F939F93AF937E
:10023000BF93EF93FF938091C6008D3621F080919C
:10024000C6008D3439F490910B0581E0911180E066
:1002500080930B058091C600813440F08091C600E8
:100260008B3520F4E6ECF0E0808180838091C6003D
:100270008D3039F486E095E09F938F93F9D10F90FC
:100280000F90FF91EF91BF91AF919F918F917F91CF
:100290006F915F914F913F912F910F900BBE0F90F7
:1002A0000FBE0F901F9018951F920F920FB60F92CE
:1002B00011248F939F939091060281E0911180E029
:1002C000809306029F918F910F900FBE0F901F9009
:1002D00018951F920F920FB60F9211248F939F9330
:1002E0009091070281E0911180E0809307029F9135
:1002F0008F910F900FBE0F901F9018951F920F9225
:100300000FB60F9211248F939F9380910A058F5FF0
:1003100080930A0580910702811105C080910A022D
:10032000809580930A0280910A05837069F4809118
:100330000602811109C080910B0290910C02019676
:1003400090930C0280930B029F918F910F900FBEA0
:100350000F901F901895009769F020E030E0EFE9CA
:10036000FFE03197F1F700C000002F5F3F4F821789
:100370009307A9F7089580910C05E82FF0E0EE0FA0
:10038000FF1FEB5FFC4F20813181232B71F49AD04A
:10039000E0910C05F0E0E35FFD4F90818091F50462
:1003A000989FC0011124D7CF089590E06091080272
:1003B00070910902B2D0FC01EE0FFF1FEB5FFC4F02
:1003C0008081918161D080910C0590E0609108025C
:1003D00070910902A2D0FC01E35FFD4F90818091F2
:1003E000F504989FC0011124B6DF80910C058F5F42
:1003F00080930C05089580E184B98FE087B988E087
:100400008DB990E89EB98BB9089580E88093690012
:1004100080936A0088E88DBB7894089580E4809387
:10042000900088E080939100E1E2F1E080818C60AF
:100430008083E0E2F1E080818064808381E19AE75B
:100440009093290180932801E3E7F0E080818260A6
:1004500080830895D0DFD3DE40D0D7DFDFDF6DE7C4
:1004600072E085E892E0BAD080910A02BDDE809108
:100470000B0290910C0268DE80910B05882311F02D
:100480007ADFF2CF1FD0F0CF82959295907F982798
:10049000807F98279C0140E050E060E074E284EFA8
:1004A00090E04FD02150310930939900209398006B
:1004B0001092950010929400E1E9F0E08081826052
:1004C00080830895E1E9F0E08081887F8083639BE9
:1004D00003C080E880939200089580E190E09093BB
:1004E000C5008093C40082E08093C00088E98093B7
:1004F000C10086E08093C2000895E0ECF0E08081C6
:100500008823ECF78091C6000895E0ECF0E090813C
:1005100095FFFDCF8093C6000895AA1BBB1B51E138
:1005200007C0AA1FBB1FA617B70710F0A61BB70B63
:10053000881F991F5A95A9F780959095BC01CD0108
:100540000895052E97FB16F400940FD057FD05D0A3
:1005500023D007FC02D046F408C050954095309552
:1005600021953F4F4F4F5F4F08959095809570951F
:1005700061957F4F8F4F9F4F0895A29FB001B39F0A
:10058000C001A39F700D811D1124911DB29F700D9C
:10059000811D1124911D0895A1E21A2EAA1BBB1BD7
:1005A000FD010DC0AA1FBB1FEE1FFF1FA217B3073F
:1005B000E407F50720F0A21BB30BE40BF50B661F55
:1005C000771F881F991F1A9469F760957095809519
:1005D00090959B01AC01BD01CF0108950F931F932E
:1005E000CF93DF93009731F46115710519F480E022
:1005F00090E039C08B01EC016EE070E081E090E0AA
:1006000047D2FC01892B99F380E8838301151105FA
:1006100071F01387028781E8838380910D059091A3
:100620000E05892B21F4F0930E05E0930D0520971C
:10063000C9F0D187C08783818260838380910F0551
:1006400090911005892B71F4F0931005E0930F053C
:100650008091110590911205892B21F4F0931205D8
:10066000E0931105CF01DF91CF911F910F91089574
:10067000CF93DF93CDB7DEB7AE014B5F5F4FFA018B
:1006800061917191AF0180910F059091100503D098
:10069000DF91CF9108952F923F924F925F926F9288
:1006A0007F928F929F92AF92BF92CF92DF92EF9202
:1006B000FF920F931F93CF93DF93CDB7DEB72B97A6
:1006C0000FB6F894DEBF0FBECDBF6C017B018A016F
:1006D000FC0117821682838181FFBFC1CE01019682
:1006E0003C01F6019381F70193FD859193FF819180
:1006F0007F01882309F4ADC1853239F493FD8591DA
:1007000093FF81917F01853221F4B60190E018D3E7
:10071000E8CF912C212C312CFFE1F315D8F08B324E
:1007200079F038F4803279F08332A1F4232D2061FE
:100730001DC08D3261F0803369F4232D216016C015
:10074000832D8260382EE32DE4603E2E2AC0F32DE7
:10075000F8601DC037FC2DC020ED280F2A3040F076
:100760008E32B9F436FC75C1232D2064322E19C0A7
:1007700036FE06C08AE0989E200D1124922E11C0EC
:10078000EAE02E9E200D1124222EF32DF0623F2E42
:1007900008C08C3621F4832D8068382E02C088363C
:1007A00041F4F70193FD859193FF81917F018111C0
:1007B000B3CF982F9F7D9554933028F40C5F1F4F33
:1007C0009FE399830DC0833631F0833771F0833511
:1007D00009F055C020C0F801808189830E5F1F4F4A
:1007E00088248394912C530112C02801F2E04F0E0B
:1007F000511CF801A080B18036FE03C0692D70E065
:1008000002C06FEF7FEFC50190D24C018201F32D42
:10081000FF773F2E15C0280122E0420E511CF8013F
:10082000A080B18036FE03C0692D70E002C06FEF7A
:100830007FEFC50168D24C01F32DF0683F2E820195
:1008400033FC19C0822D90E088169906A0F4B601F9
:1008500080E290E075D22A94F5CFF50137FC8591BE
:1008600037FE81915F01B60190E06AD221102A948F
:1008700021E0821A91088114910479F7E1C084364D
:1008800011F0893639F5F80137FE07C060817181B2
:10089000828193810C5F1F4F08C060817181072E98
:1008A000000C880B990B0E5F1F4FF32DFF763F2E28
:1008B00097FF09C090958095709561957F4F8F4FF8
:1008C0009F4FF0683F2E2AE030E0A30175D2882EBA
:1008D000861844C0853731F4232D2F7EB22E2AE0AE
:1008E00030E025C0932D997FB92E8F36C1F018F4D2
:1008F000883579F0AEC0803719F0883721F0A9C06B
:10090000E92FE061BE2EB4FE0DC0FB2DF460BF2EBA
:1009100009C034FE0AC0292F2660B22E06C028E086
:1009200030E005C020E130E002C020E132E0F80113
:10093000B7FE07C060817181828193810C5F1F4F78
:1009400006C06081718180E090E00E5F1F4FA301BF
:1009500033D2882E8618FB2DFF773F2E36FE0DC032
:10096000232D2E7FA22E891458F434FE0BC032FCA6
:1009700009C0832D8E7EA82E05C0B82CA32C03C0E1
:10098000B82C01C0B92CA4FE0FC0FE01E80DF11D6A
:100990008081803321F49A2D997EA92E09C0A2FE70
:1009A00006C0B394B39404C08A2D867809F0B3943A
:1009B000A3FC10C0A0FE06C0B21480F4280C922C38
:1009C0009B180DC0B21458F4B60180E290E0B8D183
:1009D000B394F8CFB21418F42B1802C0982C212C21
:1009E000A4FE0FC0B60180E390E0AAD1A2FE16C01B
:1009F000A1FC03C088E790E002C088E590E0B60162
:100A00000CC08A2D867851F0A1FE02C08BE201C095
:100A100080E2A7FC8DE2B60190E092D1891430F417
:100A2000B60180E390E08CD19A94F8CF8A94F301D8
:100A3000E80DF11D8081B60190E082D18110F6CFE2
:100A4000222009F44ECEB60180E290E079D12A94BA
:100A5000F7CFF6018681978102C08FEF9FEF2B962B
:100A60000FB6F894DEBF0FBECDBFDF91CF911F91BF
:100A70000F91FF90EF90DF90CF90BF90AF909F903D
:100A80008F907F906F905F904F903F902F90089540
:100A90000F931F93CF93DF93869F8001879F100D45
:100AA000969F100D1124C8010DD0EC01009721F084
:100AB000A80160E070E032D1CE01DF91CF911F91AB
:100AC0000F9108950F931F93CF93DF938230910579
:100AD00010F482E090E0E0911505F091160520E019
:100AE00030E0A0E0B0E0309719F1408151810281FF
:100AF000138148175907C8F08417950769F41097B0
:100B000031F012960C93129713961C9327C0009302
:100B100015051093160522C02115310519F042174D
:100B2000530718F49A01BD01EF01DF01F801DBCF93
:100B300021153105F9F0281B390B2430310580F4DB
:100B40008A819B816115710521F0FB01938382836A
:100B500004C09093160580931505FE01329644C09B
:100B6000FE01E20FF31F81939193225031093983E3
:100B700028833AC02091130530911405232B41F4AA
:100B80002091020230910302309314052093130543
:100B900020910002309101022115310541F42DB759
:100BA0003EB74091040250910502241B350BE091A1
:100BB0001305F0911405E217F307A0F42E1B3F0B69
:100BC0002817390778F0AC014E5F5F4F24173507BF
:100BD00048F04E0F5F1F5093140540931305819307
:100BE000919302C0E0E0F0E0CF01DF91CF911F913F
:100BF0000F910895CF93DF93009709F481C0FC0112
:100C0000329713821282A0911505B09116051097A4
:100C100081F420813181820F931F2091130530913F
:100C200014052817390751F5F0931405E0931305BF
:100C300067C0ED0120E030E0CE17DF0740F44A81C5
:100C40005B819E0141155105F1F0EA01F5CFD38397
:100C5000C28340815181840F951FC817D90759F469
:100C600088819981840F951F0296918380838A8160
:100C70009B81938382832115310529F4F093160516
:100C8000E09315053DC0E901FB83EA834991599141
:100C9000C40FD51FEC17FD0761F480819181840F8B
:100CA000951F0296E90199838883828193819B83B2
:100CB0008A83E0E0F0E012968D919C911397009763
:100CC00019F0FD01DC01F7CF8D919C9111979D01E9
:100CD0002E5F3F4F820F931F209113053091140513
:100CE0002817390769F4309729F4109216051092E5
:100CF000150502C013821282B0931405A093130548
:100D0000DF91CF910895FC01059061507040011072
:100D1000D8F7809590958E0F9F1F0895DC0101C034
:100D20006D9341505040E0F70895FC0161507040D0
:100D300001900110D8F7809590958E0F9F1F089510
:100D40000F931F93CF93DF93FB01238121FD03C0FA
:100D50008FEF9FEF2CC022FF16C046815781248160
:100D600035814217530744F4A081B1819D012F5F63
:100D70003F4F318320838C93268137812F5F3F4FF4
:100D80003783268314C08B01EC01FB010084F185BD
:100D9000E02D0995892BE1F6D80116968D919C914D
:100DA0001797019617969C938E931697CE01DF9115
:100DB000CF911F910F910895FA01AA27283051F180
:100DC000203181F1E8946F936E7F6E5F7F4F8F4F7C
:100DD0009F4FAF4FB1E03ED0B4E03CD0670F781FDB
:100DE000891F9A1FA11D680F791F8A1F911DA11DC0
:100DF0006A0F711D811D911DA11D20D009F46894F9
:100E00003F912AE0269F11243019305D3193DEF6A0
:100E1000CF010895462F4770405D4193B3E00FD056
:100E2000C9F7F6CF462F4F70405D4A3318F0495D41
:100E300031FD4052419302D0A9F7EACFB4E0A69524
:100E40009795879577956795BA95C9F70097610546
:100E5000710508959B01AC010A2E0694579547959C
:100E600037952795BA95C9F7620F731F841F951F91
:080E7000A01D0895F894FFCFC6
:100E78000000170520000101F800AA7B0004020207
:100E88000402020202020202020202040202040234
:100E98000202020202020202020402020402020226
:100EA8000202020202020204020204020202020216
:100EB8000202020202040202040202020202020206
:100EC80002020204020204020202020202020202F6
:100ED80002040202040202020202020202020204E4
:100EE80002020402020202020202020202040202D6
:100EF80004040402020404040202040404020204B6
:100F080004040202040404020204040402020404A5
:100F18000402020404040202040404020204040495
:100F28000202040404020204040402020404040287
:100F38000204040402020404040404040402020473
:100F48000202020202020202020204020204020275
:100F58000202020202020202040202040202020265
:100F68000202020202020402020402020202020255
:100F7800020202021010039302BA0210039302BA8B
:100F88000210038801B801EE010B024B029302BA6A
:100F98000293020B024B0293024A015D018801B8D9
:100FA8000188015D0188014A015D0188015D01B880
:100FB8000188015D014A0126014A01260106012630
:100FC800014A015D018801B8015D01B8018801B8D5
:100FD80001EE010B028801B801EE010B024B0293EE
:100FE80002BA02100393020B024B0293024B020B4C
:100FF800024B02EE010B024B0293024B020B02EE74
:10100800010B02B801EE010B02060126014A015D3F
:10101800014A0126014A010B02EE010B02B8010B3D
:1010280002EE01B80188015D0188015D014A015D98
:10103800018801B801EE010B02B8010B02EE010BA9
:1010480002EE01B801EE010B024B020B02EE010B9E
:1010580002B801EE010B020B024B0293020B02EEE7
:1010680001EE010B024B02EE010B02B801EE010B7F
:1010780002B801EE011003BA0293024B020B02BA46
:101088000293024B02BA0293020B024B0293021024
:1010980003BA0270031003BA0293024B021003BA98
:1010A8000293024B024A010B02EE010B024A01882D
:1010B80001EE010B024B02EE01B8010B024B029349
:1010C800020B02930293024B020B02EE01B801B825
:1010D800018801B801EE010B0293024B020B029347
:1010E80002BA020B02EE01B801B801880126018894
:1010F80001880110039302BA0210039302BA021086
:10110800038801B801EE010B024B029302BA029365
:10111800020B024B0293024A015D018801B8018863
:10112800015D0188014A015D0188015D01B80188FE
:10113800015D014A0126014A012601060126014AEC
:10114800015D018801B8015D01B8018801B801EEAF
:10115800010B02EE010B024B020B02EE010B02B86F
:1011680001EE010B02553F065B4F666D7D277F6FD1
:0A117800777C395E79710A0D0000E2
:00000001FF
