:1000000065C0000080C000007EC000007CC0000011
:1000100021C1000078C0000076C0000074C000005C
:1000200025C1000070C000006EC000006CC0000060
:100030006AC0000068C0000066C0000064C0000024
:1000400062C0000060C000005EC000005CC0000034
:100050005AC0000058C0000056C0000054C0000044
:1000600052C0000050C000004EC000004CC0000054
:100070004AC0000048C0000046C0000044C0000064
:1000800042C0000040C000003EC000003CC0000074
:100090003AC0000038C0000036C0000034C0000084
:1000A00032C0000030C000002EC000002CC0000094
:1000B0002AC0000028C0000026C00000F3C00000D5
:1000C00022C0000020C000001EC0000011241FBE7E
:1000D000CFEFD1E2DEBFCDBF14E0A0E0B2E0EEE0B2
:1000E000F5E000E00BBF02C007900D92A83FB107FA
:1000F000D9F724E0A8EFB4E001C01D92AC3FB207ED
:10010000E1F764D102C27CCF9FB7F89484BB68B991
:1001100087E084BB99230CF47894089560E080E034
:10012000F3DF60E081E0F0DF60E082E0EDCF089592
:10013000E62FF0E0E851FB4F608190E8499FA00175
:100140001124642BE1CF0895EF92FF920F931F9338
:10015000CF93DF93FC019C01369527953695279523
:10016000ABE7B4E1C3D1EC01D695C7959F01ADECE7
:10017000BCECBCD1AC015695479556954795569524
:1001800047959A01B3D196958795969587959695BB
:1001900087959C01220F331F880F991F880F991F85
:1001A000880F991F820F931FF42EF81ACA01880F27
:1001B000991F440F551F440F551F440F551F480FDB
:1001C000591F8F01041B150BEA30F10558F460E04C
:1001D00082E09ADF60E081E097DF40E0602F80E01E
:1001E000A7DF1BC0E436F10560F460E082E08CDF3D
:1001F00040E06F2D81E09CDF40E0602F80E098DFE1
:100200000CC040E0602F80E093DF40E06F2D81E084
:100210008FDF40E06C2F82E08BDFDF91CF911F9169
:100220000F91FF90EF9008959FB7F89423E024BBBF
:1002300088B987E084BB99230CF4789408958FEFF4
:1002400087B987E083BB84B1806184B967DF8FEFB2
:10025000EBCF08951F920F920FB60F9211241092B8
:10026000F8040F900FBE0F901F9018951F920F92D9
:100270000FB60F9211248F939F939091F90481E010
:1002800089278093F9048091F904811104C01092A8
:10029000FB041092FA049F918F910F900FBE0F9064
:1002A0001F9018951F920F920FB60F9211240BB644
:1002B0000F922F933F934F935F936F937F938F93FF
:1002C0009F93AF93BF93EF93FF938091FA04909124
:1002D000FB043ADF4091FA045091FB044F5F5F4FFB
:1002E0009A01369527953695279536952795A5EC4D
:1002F000B0E2FCD0929582958F7089279F708927F4
:1003000068EE73E0869F9001879F300D969F300DB9
:100310001124CA01821B930B9093FB048093FA046F
:10032000FF91EF91BF91AF919F918F917F916F91CD
:100330005F914F913F912F910F900BBE0F900FBE89
:100340000F901F90189520E030E008C0EFE9FFE023
:100350003197F1F700C000002F5F3F4F2817390792
:10036000A8F30895E0E9F0E0808180648083E1E90A
:10037000F0E0808188608083E1E2F1E080818B6041
:100380008083E3E7F0E080818260808387EA91E602
:1003900090932901809328010895E9E6F0E0808197
:1003A00080688083EAE6F0E08081806880838DB396
:1003B00088688DBB7894089580E184B98FE087B90F
:1003C00088E08DB990E89EB98BB90895F5DF37DFE5
:1003D000E4DFC8DF8091FA049091FB04B5DE8091E0
:1003E000F904882309F45CC0E091F804F0E0EE0F12
:1003F000FF1FE850FD4F80819181892B51F46BD014
:10040000E091F804F0E0E050FE4F808190E09BDF47
:10041000E6CF4091F80450E09A013695279536953D
:10042000279536952795A9E0B1E260D096958795F6
:1004300096958795C8EFC89F9001C99F300D1124EC
:10044000CA01821B930B880F991FFC01E850FD4FD6
:100450008081918127D04091F80450E09A0136952F
:1004600027953695279536952795A9E0B1E23ED098
:100470009695879596958795C89F9001C99F300D51
:100480001124CA01821B930BFC01E050FE4F8081B6
:1004900090E059DF8091F8048F5F8093F8049FCF3C
:1004A0001AD09DCF20E030E9AC01429FC001439FAC
:1004B000900D529F900D1124019790939900809375
:1004C00098001092950010929400E1E9F0E080818C
:1004D000826080830895E1E9F0E08081887F8083F5
:1004E000639B03C080E8809392000895A29FB001AF
:1004F000B39FC001A39F700D811D1124911DB29F58
:0E050000700D811D1124911D0895F894FFCFF8
:10050E0004020204020202020202020202020402B7
:10051E0002040202020202020202020204020204A7
:10052E000202020202020202020204020204020299
:10053E000202020202020202040202040202020289
:10054E000202020202020402020402020202020279
:10055E000202020204020204020202020202020269
:10056E000202040202040202020202020202020259
:10057E000402020404040202040404020204040439
:10058E00020204040402020404040202040404022B
:10059E00020404040202040404020204040402021B
:1005AE000404040202040404020204040402020409
:1005BE0004040202040404020204040404040404F5
:1005CE0002020402020202020202020202040202F9
:1005DE0004020202020202020202020402020402E7
:1005EE0002020202020202020204020204020202D9
:1005FE00020202020202021010039302BA02100358
:10060E009302BA0210038801B801EE010B024B02ED
:10061E009302BA0293020B024B0293024A015D014E
:10062E008801B80188015D0188014A015D018801D8
:10063E005D01B80188015D014A0126014A012601CA
:10064E00060126014A015D018801B8015D01B8016C
:10065E008801B801EE010B028801B801EE010B0210
:10066E004B029302BA02100393020B024B02930247
:10067E004B020B024B02EE010B024B0293024B029A
:10068E000B02EE010B02B801EE010B020601260170
:10069E004A015D014A0126014A010B02EE010B02DD
:1006AE00B8010B02EE01B80188015D0188015D0100
:1006BE004A015D018801B801EE010B02B8010B027F
:1006CE00EE010B02EE01B801EE010B024B020B0222
:1006DE00EE010B02B801EE010B020B024B0293026C
:1006EE000B02EE01EE010B024B02EE010B02B80102
:1006FE00EE010B02B801EE011003BA0293024B0297
:10070E000B02BA0293024B02BA0293020B024B0285
:10071E0093021003BA0270031003BA0293024B0243
:10072E001003BA0293024B024A010B02EE010B02B6
:10073E004A018801EE010B024B02EE01B8010B02D9
:10074E004B0293020B02930293024B020B02EE0139
:10075E00B801B8018801B801EE010B0293024B02F9
:10076E000B029302BA020B02EE01B801B801880126
:10077E0026018801880110039302BA021003930226
:10078E00BA0210038801B801EE010B024B0293026C
:10079E00BA0293020B024B0293024A015D018801D9
:1007AE00B80188015D0188014A015D0188015D0182
:1007BE00B80188015D014A0126014A0126010601A0
:1007CE0026014A015D018801B8015D01B801880169
:1007DE00B801EE010B02EE010B024B020B02EE0111
:1007EE000B02B801EE010B023F065B4F666D7D27D3
:0807FE007F6F777C395E797191
:00000001FF
