S013000054696D65724261736963322E73726563FC
S113000065C0000080C000007EC000007CC000000D
S113001021C1000078C0000076C0000074C0000058
S113002025C1000070C000006EC000006CC000005C
S11300306AC0000068C0000066C0000064C0000020
S113004062C0000060C000005EC000005CC0000030
S11300505AC0000058C0000056C0000054C0000040
S113006052C0000050C000004EC000004CC0000050
S11300704AC0000048C0000046C0000044C0000060
S113008042C0000040C000003EC000003CC0000070
S11300903AC0000038C0000036C0000034C0000080
S11300A032C0000030C000002EC000002CC0000090
S11300B02AC0000028C0000026C00000F4C00000D0
S11300C022C0000020C000001EC0000011241FBE7A
S11300D0CFEFD1E2DEBFCDBF14E0A0E0B2E0EAEAA8
S11300E0F5E000E00BBF02C007900D92AA3FB107F4
S11300F0D9F724E0AAEFB4E001C01D92AE3FB207E5
S1130100E1F765D150C27CCF9FB7F89484BB68B93E
S113011087E084BB99230CF47894089560E080E030
S1130120F3DF60E081E0F0DF60E082E0EDCF08958E
S1130130E62FF0E0E751FB4F608190E8499FA00172
S11301401124642BE1CF0895EF92FF920F931F9334
S1130150CF93DF93FC019C0136952795369527951F
S1130160ABE7B4E1EFD1EC01D695C7959F01ADECB7
S1130170BCECE8D1AC0156954795569547955695F4
S113018047959A01DFD1969587959695879596958B
S113019087959C01220F331F880F991F880F991F81
S11301A0880F991F820F931FF42EF81ACA01880F23
S11301B0991F440F551F440F551F440F551F480FD7
S11301C0591F8F01041B150BEA30F10558F460E048
S11301D082E09ADF60E081E097DF40E0602F80E01A
S11301E0A7DF1BC0E436F10560F460E082E08CDF39
S11301F040E06F2D81E09CDF40E0602F80E098DFDD
S11302000CC040E0602F80E093DF40E06F2D81E080
S11302108FDF40E06C2F82E08BDFDF91CF911F9165
S11302200F91FF90EF9008959FB7F89423E024BBBB
S113023088B987E084BB99230CF4789408958FEFF0
S113024087B987E083BB84B1806184B967DF8FEFAE
S1130250EBCF08951F920F920FB60F9211241092B4
S1130260FA040F900FBE0F901F9018951F920F92D3
S11302700FB60F9211248F939F939091FB0481E00A
S1130280911180E08093FB048091FB04811104C0F0
S11302901092FD041092FC049F918F910F900FBE59
S11302A00F901F9018951F920F920FB60F92112462
S11302B00BB60F922F933F934F935F936F937F935C
S11302C08F939F93AF93BF93EF93FF938091FC041D
S11302D09091FD0439DF4091FC045091FD044F5F7F
S11302E05F4F9A013695279536952795369527952C
S11302F0A5ECB0E227D1929582958F7089279F70E3
S1130300892768EE73E0869F9001879F300D969F42
S1130310300D1124CA01821B930B9093FD0480932A
S1130320FC04FF91EF91BF91AF919F918F917F91C9
S11303306F915F914F913F912F910F900BBE0F9052
S11303400FBE0F901F90189520E030E008C0EFE931
S1130350FFE03197F1F700C000002F5F3F4F2817EF
S11303603907A8F3089580E184B98FE087B988E05C
S11303708DB990E89EB98BB90895E0E9F0E08081E9
S113038080648083E1E9F0E0808188608083E1E239
S1130390F1E080818B608083E3E7F0E0808182601C
S11303A0808387EA91E69093290180932801089538
S11303B0E9E6F0E0808180688083EAE6F0E080810D
S11303C0806880838DB388688DBB78940895CBDF73
S11303D036DFEEDFD2DF8091FC049091FD04B4DEC1
S11303E08091FB04882309F466C0E091FA04F0E0EC
S11303F0EE0FFF1FE850FD4F80819181892B71F42E
S11304007AD0E091FA04F0E0E050FE4F80819091C0
S1130410E804989FC001112497DFE2CF4091FA04C9
S113042050E09A0136952795369527953695279568
S1130430A9E0B1E287D09695879596958795C8EF00
S1130440C89F9001C99F300D1124CA01821B930BD0
S1130450880F991FFC01E850FD4F808191812DD0B8
S11304604091FA0450E09A013695279536952795E0
S113047036952795A9E0B1E265D09695879596952E
S11304808795C89F9001C99F300D1124CA01821B12
S1130490930B2091E804289FF001299FF00D11246B
S11304A0E050FE4F808190E04FDF8091FA048F5F2F
S11304B08093FA0495CF1FD093CF82959295907F25
S11304C09827807F98279C0140E050E060E074E228
S11304D084EF90E01BD02150310930939900209390
S11304E098001092950010929400E1E9F0E0808168
S11304F0826080830895E1E9F0E08081887F8083D1
S1130500639B03C080E8809392000895052E97FBB7
S113051016F400940FD057FD05D023D007FC02D069
S113052046F408C050954095309521953F4F4F4F64
S11305305F4F089590958095709561957F4F8F4F8B
S11305409F4F0895A29FB001B39FC001A39F700D58
S1130550811D1124911DB29F700D811D1124911DC7
S11305600895A1E21A2EAA1BBB1BFD010DC0AA1FF0
S1130570BB1FEE1FFF1FA217B307E407F50720F008
S1130580A21BB30BE40BF50B661F771F881F991F83
S11305901A9469F760957095809590959B01AC01CC
S10D05A0BD01CF010895F894FFCFC8
S11305AA0402020402020202020202020202040217
S11305BA0204020202020202020202020402020407
S11305CA02020202020202020202040202040202F9
S11305DA02020202020202020402020402020202E9
S11305EA02020202020204020204020202020202D9
S11305FA02020202040202040202020202020202C9
S113060A02020402020402020202020202020202B8
S113061A0402020404040202040404020204040498
S113062A020204040402020404040202040404028A
S113063A020404040202040404020204040402027A
S113064A0404040202040404020204040402020468
S113065A0404020204040402020404040404040454
S113066A0202040202020202020202020204020258
S113067A0402020202020202020202040202040246
S113068A0202020202020202020402020402020238
S113069A020202020202021010039302BA021003B7
S11306AA9302BA0210038801B801EE010B024B024D
S11306BA9302BA0293020B024B0293024A015D01AE
S11306CA8801B80188015D0188014A015D01880138
S11306DA5D01B80188015D014A0126014A0126012A
S11306EA060126014A015D018801B8015D01B801CC
S11306FA8801B801EE010B028801B801EE010B0270
S113070A4B029302BA02100393020B024B029302A6
S113071A4B020B024B02EE010B024B0293024B02F9
S113072A0B02EE010B02B801EE010B0206012601CF
S113073A4A015D014A0126014A010B02EE010B023C
S113074AB8010B02EE01B80188015D0188015D015F
S113075A4A015D018801B801EE010B02B8010B02DE
S113076AEE010B02EE01B801EE010B024B020B0281
S113077AEE010B02B801EE010B020B024B029302CB
S113078A0B02EE01EE010B024B02EE010B02B80161
S113079AEE010B02B801EE011003BA0293024B02F6
S11307AA0B02BA0293024B02BA0293020B024B02E5
S11307BA93021003BA0270031003BA0293024B02A3
S11307CA1003BA0293024B024A010B02EE010B0216
S11307DA4A018801EE010B024B02EE01B8010B0239
S11307EA4B0293020B02930293024B020B02EE0199
S11307FAB801B8018801B801EE010B0293024B0259
S113080A0B029302BA020B02EE01B801B801880185
S113081A26018801880110039302BA021003930285
S113082ABA0210038801B801EE010B024B029302CB
S113083ABA0293020B024B0293024A015D01880138
S113084AB80188015D0188014A015D0188015D01E1
S113085AB80188015D014A0126014A0126010601FF
S113086A26014A015D018801B8015D01B8018801C8
S113087AB801EE010B02EE010B024B020B02EE0170
S113088A0B02B801EE010B02553F065B4F666D7D04
S10D089A277F6F777C395E797100C7
S9030000FC
